:020000040800F2
:10B0000000000120A9EB010861E1010863E10108EA
:10B0100065E1010867E1010869E10108000000003D
:10B02000000000000000000000000000E17F0208B6
:10B030006BE101080000000071800208B95B0208A2
:10B04000F9EB0108F9EB0108F9EB0108F9EB01084C
:10B05000F9EB0108F9EB0108F9EB0108F9EB01083C
:10B06000F9EB0108F9EB01086DE10108F9EB0108C2
:10B07000F9EB0108F9EB0108F9EB0108C9E1010856
:10B0800071E10108F9EB0108F9EB0108F9EB01089E
:10B09000F9EB0108F9EB0108F9EB0108F9EB0108FC
:10B0A000F9EB0108F9EB0108F9EB0108F9EB0108EC
:10B0B000F9EB01080000000000000000F9EB0108B6
:10B0C000F9EB0108F9EB0108F9EB0108F9EB0108CC
:10B0D000F9EB01087DE10108F9EB010889E10108BC
:10B0E0009DE10108F9EB01080000000000000000EC
:10B0F0000000000000000000000000000000000050
:10B1000000000000F9EB010800000000F9EB010865
:10B110000000000000000000F9EB0108A5E10108B3
:10B12000F9EB0108F9EB0108F9EB0108F9EB01086B
:10B13000F9EB010800000000000000000000000022
:10B14000F9EB0108F9EB0108BDE10108000000007E
:10B15000F9EB0108F9EB0108B1E10108F9EB01088D
:10B16000F9EB0108F9EB0108F9EB01080000000018
:10B17000F9EB0108F9EB01080000000000000000F5
:0CB18000F9EB0108F9EB0108F9EB0108FC
:10B1900010B5054C237833B9044B13B10448AFF311
:10B1A00000800123237010BD200300200000000058
:10B1B00094DA020808B5034B1BB103490348AFF307
:10B1C000008008BD000000002403002094DA02087B
:10B1D00010F8012B11F8013B012A28BF9A42F7D041
:10B1E000D01A7047034613F8012B002AFBD1181A16
:10B1F000013870470000000000000000000000005F
:10B2000001F0FF01102A2BDB10F0070F08D010F817
:10B21000013B013A8B422DD010F0070F42B3F6D11B
:10B22000F0B441EA012141EA014122F007047FF034
:10B2300000070023F0E80256083C85EA010586EA8B
:10B24000010685FA47F5A3FA87F586FA47F6A5FAC7
:10B2500087F68EB9EED1F0BC01F0FF0102F00702D3
:10B2600032B110F8013B013A83EA010313B1F8D17E
:10B270000020704701387047002D06BF354603385F
:10B28000073815F0010F07D1013015F4807F02BF98
:10B29000013015F4C03F0130F0BC0138704700BFE9
:10B2A00081F0004102E000BF83F0004330B54FEA77
:10B2B00041044FEA430594EA050F08BF90EA020FE4
:10B2C0001FBF54EA000C55EA020C7FEA645C7FEA77
:10B2D000655C00F0E2804FEA5454D4EB5555B8BF9A
:10B2E0006D420CDD2C4480EA020281EA030382EA0B
:10B2F000000083EA010180EA020281EA0303362D9D
:10B3000088BF30BD11F0004F4FEA01314FF4801C6F
:10B310004CEA113102D0404261EB410113F0004F81
:10B320004FEA03334CEA133302D0524263EB430338
:10B3300094EA050F00F0A780A4F10104D5F1200ED6
:10B340000DDB02FA0EFC22FA05F2801841F1000131
:10B3500003FA0EF2801843FA05F359410EE0A5F105
:10B3600020050EF1200E012A03FA0EFC28BF4CF036
:10B37000020C43FA05F3C01851EBE37101F00045EC
:10B3800007D54FF0000EDCF1000C7EEB00006EEBF9
:10B390000101B1F5801F1BD3B1F5001F0CD3490883
:10B3A0005FEA30004FEA3C0C04F101044FEA4452DA
:10B3B00012F5800F80F09A80BCF1004F08BF5FEA61
:10B3C000500C50F1000041EB045141EA050130BD41
:10B3D0005FEA4C0C404141EB0101013C28BFB1F553
:10B3E000801FE9D291F0000F04BF01460020B1FA9E
:10B3F00081F308BF2033A3F10B03B3F120020CDA71
:10B400000C3208DD02F1140CC2F10C0201FA0CF04E
:10B4100021FA02F10CE002F11402D8BFC2F1200CB3
:10B4200001FA02F120FA0CFCDCBF41EA0C01904069
:10B43000E41AA2BF01EB0451294330BD6FEA0404B2
:10B440001F3C1CDA0C340EDC04F11404C4F120029D
:10B4500020FA04F001FA02F340EA030021FA04F3AF
:10B4600045EA030130BDC4F10C04C4F1200220FA06
:10B4700002F001FA04F340EA0300294630BD21FA44
:10B4800004F0294630BD94F0000F83F4801306BF0A
:10B4900081F480110134013D4EE77FEA645C18BFFE
:10B4A0007FEA655C29D094EA050F08BF90EA020F95
:10B4B00005D054EA000C04BF1946104630BD91EA8D
:10B4C000030F1EBF0021002030BD5FEA545C05D190
:10B4D0004000494128BF41F0004130BD14F58004CF
:10B4E0003CBF01F5801130BD01F0004545F0FE4143
:10B4F00041F470014FF0000030BD7FEA645C1ABF78
:10B50000194610467FEA655C1CBF0B46024650EAAE
:10B51000013406BF52EA033591EA030F41F40021DA
:10B5200030BD00BF90F0000F04BF0021704730B560
:10B530004FF4806404F132044FF000054FF0000135
:10B5400050E700BF90F0000F04BF0021704730B5F6
:10B550004FF4806404F1320410F0004548BF4042CB
:10B560004FF000013EE700BF42004FEAE2014FEA20
:10B5700031014FEA02701FBF12F07F4393F07F4FFB
:10B5800081F06051704732F07F4208BF704793F0FE
:10B590007F4F04BF41F40021704730B54FF4607411
:10B5A00001F0004521F000411CE700BF50EA010214
:10B5B00008BF704730B54FF000050AE050EA0102BD
:10B5C00008BF704730B511F0004502D5404261EB2D
:10B5D00041014FF4806404F132045FEA915C3FF46E
:10B5E000D8AE4FF003025FEADC0C18BF03325FEA0B
:10B5F000DC0C18BF033202EBDC02C2F1200300FABC
:10B6000003FC20FA02F001FA03FE40EA0E0021FAE0
:10B6100002F11444BDE600BF70B54FF0FF0C4CF4CE
:10B62000E06C1CEA11541DBF1CEA135594EA0C0F80
:10B6300095EA0C0F00F0DEF82C4481EA030621EABB
:10B640004C5123EA4C5350EA013518BF52EA0335F6
:10B6500041F4801143F4801338D0A0FB02CE4FF0A8
:10B660000005E1FB02E506F00042E0FB03E54FF0D8
:10B670000006E1FB03569CF0000F18BF4EF0010ED0
:10B68000A4F1FF04B6F5007F64F5407404D25FEACC
:10B690004E0E6D4146EB060642EAC62141EA55517F
:10B6A0004FEAC52040EA5E504FEACE2EB4F1FD0CC1
:10B6B00088BFBCF5E06F1ED8BEF1004F08BF5FEA3F
:10B6C000500E50F1000041EB045170BD06F00046F1
:10B6D00046EA010140EA020081EA0301B4EB5C049E
:10B6E000C2BFD4EB0C0541EA045170BD41F4801196
:10B6F0004FF0000E013C00F3AB8014F1360FDEBFBB
:10B70000002001F0004170BDC4F10004203C35DA96
:10B710000C341BDC04F11404C4F1200500FA05F319
:10B7200020FA04F001FA05F240EA020001F00042BA
:10B7300021F0004110EBD37021FA04F642EB060130
:10B740005EEA430E08BF20EAD37070BDC4F10C045A
:10B75000C4F1200500FA04F320FA05F001FA04F21E
:10B7600040EA020001F0004110EBD37041F100010A
:10B770005EEA430E08BF20EAD37070BDC4F1200515
:10B7800000FA05F24EEA020E20FA04F301FA05F27D
:10B7900043EA020321FA04F001F0004121FA04F225
:10B7A00020EA020000EBD3705EEA430E08BF20EAF5
:10B7B000D37070BD94F0000F0FD101F0004640002F
:10B7C00041EB010111F4801F08BF013CF7D041EAB1
:10B7D000060195F0000F18BF704703F000465200B5
:10B7E00043EB030313F4801F08BF013DF7D043EA86
:10B7F0000603704794EA0C0F0CEA135518BF95EA3C
:10B800000C0F0CD050EA410618BF52EA4306D1D1C2
:10B8100081EA030101F000414FF0000070BD50EAE1
:10B82000410606BF1046194652EA430619D094EA6B
:10B830000C0F02D150EA013613D195EA0C0F05D155
:10B8400052EA03361CBF104619460AD181EA0301A9
:10B8500001F0004141F0FE4141F470014FF0000061
:10B8600070BD41F0FE4141F4780170BD70B54FF0FC
:10B87000FF0C4CF4E06C1CEA11541DBF1CEA13557C
:10B8800094EA0C0F95EA0C0F00F0A7F8A4EB05045E
:10B8900081EA030E52EA03354FEA013100F0888055
:10B8A0004FEA03334FF0805545EA131343EA12631E
:10B8B0004FEA022245EA111545EA10654FEA0026D3
:10B8C0000EF000419D4208BF964244F1FD0404F58C
:10B8D000407402D25B084FEA3202B61A65EB0305E8
:10B8E0005B084FEA32024FF480104FF4002CB6EBA5
:10B8F000020E75EB030E22BFB61A754640EA0C0025
:10B900005B084FEA3202B6EB020E75EB030E22BF64
:10B91000B61A754640EA5C005B084FEA3202B6EBA5
:10B92000020E75EB030E22BFB61A754640EA9C0064
:10B930005B084FEA3202B6EB020E75EB030E22BF34
:10B94000B61A754640EADC0055EA060E18D04FEAF2
:10B95000051545EA16754FEA06164FEAC30343EA92
:10B9600052734FEAC2025FEA1C1CC0D111F4801F5F
:10B970000BD141EA00014FF000004FF0004CB6E758
:10B9800011F4801F04BF01430020B4F1FD0C88BFF7
:10B99000BCF5E06F3FF6AFAEB5EB030C04BFB6EB02
:10B9A000020C5FEA500C50F1000041EB045170BDF5
:10B9B0000EF0004E4EEA113114EB5C04C2BFD4EB22
:10B9C0000C0541EA045170BD41F480114FF0000EA6
:10B9D000013C90E645EA060E8DE60CEA135594EA22
:10B9E0000C0F08BF95EA0C0F3FF43BAF94EA0C0F25
:10B9F0000AD150EA01347FF434AF95EA0C0F7FF49A
:10BA000025AF104619462CE795EA0C0F06D152EAED
:10BA100003353FF4FDAE1046194622E750EA4106D1
:10BA200018BF52EA43067FF4C5AE50EA41047FF4E2
:10BA30000DAF52EA43057FF4EBAE12E74FF0FF3C47
:10BA400006E000BF4FF0010C02E000BF4FF0010C18
:10BA50004DF804CD4FEA410C7FEA6C5C4FEA430C91
:10BA600018BF7FEA6C5C1BD001B050EA410C0CBFE0
:10BA700052EA430C91EA030F02BF90EA020F002042
:10BA8000704710F1000F91EA030F58BF994208BFA9
:10BA900090422CBFD8176FEAE37040F00100704766
:10BAA0004FEA410C7FEA6C5C02D150EA013C07D1BD
:10BAB0004FEA430C7FEA6C5CD6D152EA033CD3D008
:10BAC0005DF8040B704700BF8446104662468C4602
:10BAD0001946634600E000BF01B5FFF7B7FF002835
:10BAE00048BF10F1000F01BD4DF808EDFFF7F4FF5E
:10BAF0000CBF012000205DF808FB00BF4DF808EDE9
:10BB0000FFF7EAFF34BF012000205DF808FB00BF0B
:10BB10004DF808EDFFF7E0FF94BF012000205DF82D
:10BB200008FB00BF4DF808EDFFF7CEFF94BF0120E2
:10BB300000205DF808FB00BF4DF808EDFFF7C4FFDB
:10BB400034BF012000205DF808FB00BF4A0011D27D
:10BB500012F5001211D20DD56FF47873B3EB625267
:10BB60000ED44FEAC12343F0004343EA505323FA73
:10BB700002F070474FF00000704750EA013002D1E8
:10BB80004FF0FF3070474FF0000070474FEA41021E
:10BB9000B2F1E04324BFB3F5001CDCF1FE5C0DD92B
:10BBA00001F0004C4FEAC0024CEA5070B2F1004F75
:10BBB00040EB830008BF20F00100704711F0804F78
:10BBC00021D113F13872BCBF01F00040704741F43D
:10BBD00080114FEA5252C2F11802C2F1200C10FA41
:10BBE0000CF320FA02F018BF40F001004FEAC12325
:10BBF0004FEAD32303FA0CFC40EA0C0023FA02F3C9
:10BC00004FEA4303CCE77FEA625307D150EA01339E
:10BC10001EBF4FF0FE4040F44000704701F000406E
:10BC200040F0FE4040F40000704700BF53B94AB9ED
:10BC3000002908BF00281CBF4FF0FF314FF0FF3034
:10BC400000F0BEB9ADF1080C6DE904CE00F03CF88F
:10BC5000DDF804E0DDE9022304B0704738B50022C6
:10BC6000002304460D46FFF749FF28B92046294620
:10BC7000BDE8384000F00AB8204605F1004100F068
:10BC800005F8404261EB410138BD00BFD0B50C4B17
:10BC9000002206460F46FFF7BFFCFFF757FF04469A
:10BCA000FFF740FC074B0022FFF7B6FC02460B46AD
:10BCB00030463946FFF7F8FAFFF748FF2146D0BD76
:10BCC0000000F03D0000F0412DE9F047089D8E4650
:10BCD00004468846002B4AD18A42174662D9B2FAF6
:10BCE00082F64EB1C6F1200301FA06F820FA03F3FA
:10BCF000B74043EA0808B4404FEA174E1FFA87FCE2
:10BD0000B8FBFEF1230C0EFB118843EA084301FB4C
:10BD10000CF29A4209D9FB1801F1FF3080F0EA8059
:10BD20009A4240F2E78002393B449A1AA3B2B2FB2E
:10BD3000FEF00EFB102243EA024300FB0CFC9C4584
:10BD400009D9FB1800F1FF3280F0D6809C4540F203
:10BD5000D3803B44023840EA0140A3EB0C030021AE
:10BD60001DB1F3400022C5E90032BDE8F0878B42E7
:10BD700005D90DB1C5E9000100210846F5E7B3FA80
:10BD800083F1002946D1734502D3824200F2058136
:10BD9000841A6EEB030201209046002DE5D0C5E920
:10BDA0000048E2E7002A00F09080B2FA82F6002E06
:10BDB00040F0A4808A1A030C4FEA174E80B2BCB23E
:10BDC0000121B2FBFEFC0EFB1C2243EA024304FBF2
:10BDD0000CF29A4207D9FB180CF1FF3802D29A42B2
:10BDE00000F2E080C4469B1AB3FBFEF20EFB123356
:10BDF00040EA034302FB04F49C4207D9FB1802F11A
:10BE0000FF3002D29C4200F2CA8002461B1B42EA6B
:10BE10000C40A5E7C1F120068B4022FA06F71F432C
:10BE20000EFA01F420FA06F32EFA06FE4FEA17493D
:10BE3000234300FA01F81FFA87FCBEFBF9F01C0C43
:10BE400009FB10EE44EA0E4400FB0CFEA64502FA84
:10BE500001F209D93C1900F1FF3A80F09C80A64517
:10BE600040F2998002383C44A4EB0E041FFA83FE92
:10BE7000B4FBF9F309FB13444EEA044403FB0CFC46
:10BE8000A44508D93C1903F1FF3E80F08280A44507
:10BE90007FD9023B3C4443EA0040A4EB0C04A0FBE6
:10BEA00002EC64457346E14662D35FD05DB1B8EB06
:10BEB000030264EB090404FA06F622FA01F31E43B6
:10BEC000CC40C5E9006400214FE7B1FBF2FC010C56
:10BED00041EA0E4180B240EA01423B4638463C46C8
:10BEE000B846BE462026B1FBF7F1A2EB080241EAB4
:10BEF0000C4166E7014618E710462CE7C6F1200220
:10BF00002EFA02F3B740B14020FA02F24FEA174E80
:10BF10000A43B3FBFEF8BCB20EFB1833110C41EA26
:10BF2000034108FB04F9B04089454FEA104380B251
:10BF30003ED9791808F1FF3C01D289451FD8A1EB01
:10BF40000901B1FBFEF909FB04F80EFB191192B2CD
:10BF500042EA0142424529D2BA1809F1FF31C4D25E
:10BF60004245C2D2A9F102013A44BEE7F0459DD252
:10BF7000BEEB02036CEB070C0138E14696E7A7EB3A
:10BF800009094944A8F1020CB1FBFEF909FB04F8C8
:10BF9000DBE773467FE7504666E70846FDE63B442D
:10BFA000023A33E7ACF1020C3B441CE749469CE7FC
:10BFB000A1EB0901C446B1FBFEF909FB04F8C4E793
:10BFC000704700BF50E8003F43F0200340E80032D4
:10BFD000002AF7D17047F8B50D4616461F461DF0EA
:10BFE000A8FB0446C8B12846FFF7FCF8235C2518D7
:10BFF000202B08BF01353E2128461DF057FB58B1C4
:10C00000441B0AD0BC4208D22246294630461EF0C4
:10C0100006FA002333550120F8BD0020FCE700009C
:10C0200010B5124C236803F1080252E8002F22F0E9
:10C03000010203F1080040E800210029F3D153E890
:10C04000002F22F0200243E800210029F7D11A68CE
:10C0500022F001021A60642019F04AFE2068FFF7FE
:10C06000B1FF036843F00103036010BDC803002063
:10C07000F8B5C76804460E46154697B97822394682
:10C0800004301DF0EEFA234B266028461E601CF09B
:10C090001FF9E06038B9204A20492148462312F0B0
:10C0A00017FB0020F8BD28461CF012F90646206157
:10C0B00050B9194A19491B484E2312F009FBE06890
:10C0C0001CF09EF9E660ECE701201AF0A6F906469E
:10C0D000A06768B9104A11491348582312F0F8FABA
:10C0E000E0681CF08DF920691CF08AF92661E9E707
:10C0F0002A463946E068E5821DF0B3FA2A462069EF
:10C1000039461DF0AEFA2068FFF75CFF84F86270D4
:10C110000120C7E7C8030020857A0308D4DB0208A2
:10C12000DADB02081ADC02085FDC02080368DA695D
:10C13000920610B504460ED5C18A9A8C838A0139BD
:10C140008B4292B20ADAC168581CA082CA5416F017
:10C15000ADFAA06002E04FF0FF321A6210BD00009D
:10C1600010B53D4C2368002B75D0DA69100722D535
:10C1700008223A491A623A483A4A8D2312F0A8FA3C
:10C18000FFF74EFF4FF47A7019F0B2FD0122202123
:10C19000354816F005FF4FF4FA7019F0A9FD324842
:10C1A0000022202116F0FCFE642019F0A1FD4FF4BE
:10C1B0007A7019F09DFD2368DA69910722D5022271
:10C1C00026491A622948274A9A2312F081FAFFF772
:10C1D00027FF4FF47A7019F08BFD012220212248AD
:10C1E00016F0DEFE4FF4FA7019F082FD1E480022B0
:10C1F000202116F0D5FE642019F07AFD4FF47A70F4
:10C2000019F076FD2368DA69520724D50422134910
:10C210001A621748134AA72312F05AFAFFF700FFD1
:10C220004FF47A7019F064FD012220210E4816F0B7
:10C23000B7FE4FF4FA7019F05BFD0B480022202185
:10C2400016F0AEFE642019F053FDBDE810404FF427
:10C250007A7019F04DBD10BDC8030020D4DB020870
:10C2600091DC02086D7A030800100048BDDC02086A
:10C27000E9DC020870B504460E46806F4FF4FA718F
:10C2800015461AF0E2F9012818D0BDE870400C4AB2
:10C290000C490D48B72312F01BBA2268F15C1185D6
:10C2A000D1694906FCD50133AB42F6D30023A06F18
:10C2B0001A46BDE87040194619F0DEBF0023F3E7C7
:10C2C0005F7A0308D4DB020813DD0208F0B50268C8
:10C2D00089B004460D4652E8003F23F0200342E8AF
:10C2E0000036002EF7D1A38A002B40F0AE81002744
:10C2F0002068FFF767FE002F00F0A5812369A5499C
:10C30000A54A0093A5484FF40B7312F0E1F9A44B32
:10C3100018680FF035FC2669A24930461DF009FA6D
:10C3200008B101232371A04930461DF002FA30B351
:10C33000002302939C49042302AA3046FFF74BFED8
:10C34000002800F0948102A81CF0BFF823460038B2
:10C3500018BF012003F8620F0693012307930423FB
:10C360008DF814300DB105A8A84794F862300093F9
:10C37000894A8E498E4840F2412312F0A9F9276973
:10C380008C4938461DF0D5F90646002800F0778123
:10C39000894B06930123079308238DF814300DB1C0
:10C3A00005A8A8472669854930461DF0C2F900282E
:10C3B0002CD0002302938149042302AA3046FFF7C0
:10C3C0000AFE002800F09C8102227D4902A81DF08F
:10C3D0001EF97C4B069300280CBF012200221A7024
:10C3E000794A6C4979484FF0010307934FF00603EF
:10C3F0008DF81430764B08BF13460093664A40F21E
:10C40000812312F065F90DB105A8A8472669714985
:10C4100030461DF08EF900282CD0002302936D4980
:10C42000042302AA3046FFF7D6FD002800F07081F1
:10C430000222634902A81DF0EAF8674B0693002820
:10C440000CBF012200221A705F4A524963484FF024
:10C45000010307934FF005038DF814305C4B08BFC0
:10C46000134600934C4A40F2962312F031F90DB175
:10C4700005A8A84726695A4930461DF05AF90028F0
:10C4800000F04E81574B069301230793424A4149DE
:10C49000554807238DF8143040F2A72312F018F9FD
:10C4A0000DB105A8A847514920691DF042F980B196
:10C4B0004F4B0693012307930B238DF81430364A14
:10C4C00034494C4840F2BF2312F002F90DB105A8DF
:10C4D000A8472769484938461DF02BF9A8B104F14F
:10C4E0002C064549122332463846FFF774FD0028D2
:10C4F00000F02A8130460696FEF774FE012307906D
:10C500008DF814300DB105A8A84727693B49384676
:10C510001DF00FF9A8B104F13E0638491223324646
:10C520003846FFF758FD002800F016813046069681
:10C53000FEF758FE022307908DF814300DB105A8C0
:10C54000A84727692E4938461DF0F3F8D0B104F109
:10C5500064061222002130461DF083F82849122378
:10C5600032463846FFF737FD002800F0FD803046A0
:10C570000696FEF737FE032307908DF814300DB1B1
:10C5800005A8A8471F4920691DF0D3F8002855D0F9
:10C590001D4D3BE059DD0208567A03085FDD0208B5
:10C5A0002833002077DD02087EDD020886DD0208E0
:10C5B0008BDD0208E7DD02080200002080DE0208B1
:10C5C00083DD02083E0300202321030885DE0208E4
:10C5D00055DD0208D8DE02083D030020DEDE020839
:10C5E00033DF0208010000203CDF02088BDF020875
:10C5F0000000002096DF0208BCDF0208FADF020814
:10C6000036E0020876E00208640300205E4A5F49D3
:10C610005F4840F2013312F05BF85E4920691E2347
:10C620002A46FFF7D8FC002800F0A680564A5A494F
:10C630005A48009540F2063312F04AF8E28A20691F
:10C6400000211DF00EF809B0F0BD16F02FF8A36818
:10C65000C01A09287FF64BAED4E90330A78AE28AD4
:10C66000A682C4E9030331461CF0FBFF40E6464ABC
:10C670004B494C4840F2452312F02AF87FE64A49DC
:10C6800038461DF056F818B34749ADF810600A2334
:10C6900002AA3846CDE90266FFF79DFC80B104F19D
:10C6A000180602AB414A1421304612F027F8364AE8
:10C6B0003949009640F259233D4812F009F871E6D5
:10C6C000314A37493B4840F25D2312F001F869E6F0
:10C6D000394938461DF02DF828B1384B069301230F
:10C6E0000793092359E6364938461DF022F80028F9
:10C6F0003FF458AE334B0693012307930A234CE6CD
:10C70000214A2749304840F2872311F0E1FF7DE6B6
:10C710001D4A23492D484FF4277311F0D9FFA9E68C
:10C720002B4930461DF005F800283FF4BCAE294BDC
:10C7300006930123079307238DF81430124A1349F7
:10C74000254840F2B123A9E60F4A1549234840F293
:10C75000D32311F0BDFFD8E60B4A1149204840F21F
:10C76000E62311F0B5FFECE6074A0D491D4840F2FB
:10C77000FA2311F0ADFF05E7034A09491A4840F2D0
:10C780000A3311F0A5FF59E7567A030859DD02086C
:10C790007DE0020876E0020886DD02089CE00208DF
:10C7A000D4DB0208AFDD0208EFDD0208F4DD020889
:10C7B000FCDD020821DE020869DE020840030020D9
:10C7C00073DE02083F030020A3DE0208FDDE02083C
:10C7D0005DDF02083C03002068DF0208C3DF0208B7
:10C7E00000E002083EE00208BEE0020873B50F4C0C
:10C7F000232605463246002120461CF032FF0C4B12
:10C80000DA7801921A78009231465B78094A20461C
:10C8100011F074FF2046FEF7E5FC214682B228465F
:10C8200002B0BDE87040FFF725BD00BF4103002006
:10C830006433002002E1020870B5064615F036FFA9
:10C84000164C05462369D90319D42269144B1A42A0
:10C8500003D1A369B3F1804F18D3104B9A6942F00A
:10C8600040429A614CF2FA321A619A6942F04042AF
:10C870009A611A69D20744BF01221A6104E015F0D7
:10C8800015FF401BB042DDD9002070BD2369DB07D6
:10C8900001D40120F9E701232361FAE700200240D7
:10C8A000FAC3020030B5C102B1F5802F89B0044649
:10C8B00009D30090334A34493448992311F008FFD2
:10C8C000002009B030BD082340F60800CA1802F164
:10C8D000006252E90252B2F1FF3F08BFB5F1FF3FDB
:10C8E0001FD108338342F1D1264A294900949F235E
:10C8F000284811F0EDFE12E0802B06D13F2C8CBFB2
:10C9000000230123002BDBD015E07F2CF7E71D4A25
:10C910001F492148BA2311F0DBFE16F0AFF80120C1
:10C92000CFE71E4BB3F8E030C3F30B03B3F5807FC2
:10C93000E2D17F2CC4D816F08FF8194B9A6942F0D7
:10C9400040429A614CF2FA321A6116F097F80123CC
:10C950000022CDE90423CDE9064316F07DF803A9B2
:10C9600004A816F06BF90028D1D016F091F8054A0A
:10C9700005490090B4230B4811F0AAFE16F07EF88A
:10C980009EE700BF8E7A0308D4DB020823E1020889
:10C9900059DD0208A6E102087CE102080075FF1FCC
:10C9A0000020024050E102082DE9F34780460D4681
:10C9B0001F46164602B14BB94A4A4B494B485123D0
:10C9C00011F086FE002002B0BDE8F087B1F5006FDF
:10C9D00004D3444A444946485723F1E7454B9A69F2
:10C9E00042F040429A614CF2FA321A61FFF75AFF64
:10C9F000814616F031F83B4A04466323C8B93E49E4
:10CA00003E4811F065FEB9F1000FDBD008F580302B
:10CA10003B494FEAC02805EBC0200023C01943EB77
:10CA200003028142934107D22E4A2F4935486B2396
:10CA3000C6E72D493448E4E717F0070318BF012380
:10CA400003EBD7039DB254B9083E2746BD4212DC22
:10CA500016F014F8234A28492C488E2305E016F0D6
:10CA60000DF8204A20492A488E2311F031FEB4FAED
:10CA700084F04009A7E7C820FFF7DEFE40B9194A55
:10CA800019492448772311F023FE15F0F7FF99E7A1
:10CA900056F808AFD6F8049052464B46414600205F
:10CAA00016F026F850B115F0F3FF0E4A0E49CDE905
:10CAB00000807F23184811F00BFEE6E7D8E9001349
:10CAC0004B4508BF514508D0064A0749CDF80080BC
:10CAD0008623124811F0FCFDD7E708F1080801375A
:10CAE000B4E700BF9B7A0308D4DB0208D2E1020856
:10CAF000F9E102080020024059DD020823E20208A1
:10CB0000000004087FE2020851E20208AFE30208D5
:10CB1000BEE20208EAE2020832E3020874E3020815
:10CB2000F0B5044610460AB3072B27D9144AB2F8C9
:10CB3000E020C2F30B02B2F5807F01D17F2C02E02E
:10CB4000802AFBD13F2C19D811F0070516D113F01C
:10CB5000070218BF012204F5803402EBD30201EB77
:10CB6000C42192B2091AAA4201D80120F0BD43188B
:10CB7000D3E900670135E0E80267F4E70020F5E754
:10CB80000075FF1F10B58EB04FF480730129044665
:10CB9000069328D0022928D0032928D115234FF045
:10CBA00080710122CDE9091200931348002341F25C
:10CBB00088326946CDE90433CDE90B3307930393FB
:10CBC0000193089302930D9317F044F988B90A482A
:10CBD00041F28832214617F0DEF9003818BF0120F3
:10CBE00080000EB010BD0523D9E73523D7E702201A
:10CBF000F7E70420F5E700BF8C390020F7B50023E4
:10CC00000446012101A8ADF804308DF80630FFF785
:10CC1000B9FF70BB02210DF10500FFF7B3FF40BB68
:10CC200003210DF10600FFF7ADFF10BB9DF8045086
:10CC30009DF805109DF806200F4B05F0010CC1F37F
:10CC4000400702F00106C5F34005C909C2F34002DE
:10CC500083F800C05D709F70D9701E715A7144B125
:10CC60009B7984F800C06570A770E17026716271CD
:10CC7000A37103B0F0BD00BFCC03002007B50023B3
:10CC800001210DF107008DF80730FFF77BFF30B968
:10CC90009DF80700034B00F0010210461A7003B024
:10CCA0005DF804FBCC03002070B504468EB00D4641
:10CCB0001646FFF7E3FF01282BD04FF4807306934D
:10CCC000EC23062200934FF44053039305924FF454
:10CCD00040634FF04072CDE9092507930F48019654
:10CCE000002341F288326946CDE90B330893029361
:10CCF00004930D9317F0AEF870B9084841F28832EA
:10CD0000214617F048F9003818BF012080000EB006
:10CD100070BD18F0EDFFCCE70420F8E78C39002057
:10CD20004B1EFF2B01D8FFF7BFBF02207047B3F5A2
:10CD3000003F30B40BD24D1EFF2D08D8C1F58074D2
:10CD4000A24204DC30BC02EB0322FFF7E9BF022061
:10CD500030BC704710B58EB04FF480730693AB2390
:10CD600000930E48002341F288326946CDE904332E
:10CD7000CDE90933CDE90B3307930393019308936E
:10CD800002930D9317F066F8044628B9012018F0B5
:10CD9000AFFF20460EB010BD0424FAE78C39002006
:10CDA00010B58EB04FF480730693AB2300934FF40D
:10CDB0008063012207934FF0807E4FF40053CDE94A
:10CDC00009E2044603930F48002341F28832694682
:10CDD000CDE90433CDE90B330193089302930D930E
:10CDE00017F038F858B9074841F28832214617F051
:10CDF000D2F8003818BF012080000EB010BD04200A
:10CE0000FBE700BF8C39002030B591B04FF4807340
:10CE1000051E08930CBF0423062302931848002321
:10CE200041F2883202A9CDE90633CDE90B33CDE9D1
:10CE30000D330993059303930A9304930F9317F00B
:10CE400009F80446D0B9012018F052FF01210DF174
:10CE500007008DF80740FFF795FE48B99DF80730A9
:10CE6000084AC3F34001517025B1002908BF0320CF
:10CE700011B030BD002918BF0320F9E70420F7E7FF
:10CE80008C390020CC03002030B591B00D468DF8D0
:10CE90000700FFF7F3FE01282AD00120FFF7B4FFB7
:10CEA000044610BB4FF48073012D089304D0022D6B
:10CEB00021D0032D32D111254FF0807101220023A2
:10CEC000CDE90B121648029541F2883202A9CDE94C
:10CED0000633CDE90D330993059303930A93049325
:10CEE0000F9316F0B7FF40B10424204611B030BDB7
:10CEF00018F0FEFECDE73125DEE7094841F2883221
:10CF00000DF1070116F0EBFF04460028ECD1FFF706
:10CF1000B5FE0128E9D118F0EBFEF8E70224E4E7BA
:10CF20008C390020F0B54B1EFF2B8FB006460D4606
:10CF3000174603D9022429E018F0DAFEFFF79EFE17
:10CF40000128F9D00120FFF75FFF0446F0B94FF444
:10CF500080730693342300934FF4405303934FF4AC
:10CF60008063CDE90400CDE90B000793089002909F
:10CF70004FF040730D9041F288320E480197694698
:10CF8000CDE9093516F066FF18B1042420460FB02C
:10CF9000F0BD084841F28832314616F0A0FF044641
:10CFA0000028F2D1FFF76AFE0128EFD118F0A0FEA9
:10CFB000F8E700BF8C390020B3F5003F30B40BD246
:10CFC0004D1EFF2D08D8C1F58074A24204DC30BC90
:10CFD00002EB0322FFF7A6BF022030BC704700001F
:10CFE00030B5B0F5005F8FB0054603D3022430E0C2
:10CFF00018F07EFEFFF742FE0128F9D00120FFF76E
:10D0000003FF044628BB4FF480730693212300934B
:10D010004FF44053CDE90400CDE90900CDE90B0000
:10D02000039308904FF4806302900D902D030A48FB
:10D03000079341F288326946019516F00BFF0446CA
:10D0400018B1042405E018F053FEFFF717FE01287D
:10D05000F9D020460FB030BD8C39002010B5044601
:10D060008EB0FFF70BFE012824D04FF48073002C04
:10D0700006930CBFE923B72300931148002341F224
:10D0800088326946CDE90433CDE90933CDE90B3364
:10D09000079303930193089302930D9316F0DAFE1E
:10D0A000044650B9012018F023FE2046FFF7A6FDE4
:10D0B0000EB010BD18F01CFED3E70420F8E700BF47
:10D0C0008C39002013B500230DF106008DF80630D1
:10D0D000FFF766FE034600283DD1FFF78FFD0346AC
:10D0E000C8BB1E4C62799AB98DF8070003210DF177
:10D0F0000700FFF747FD034668BB9DF807000321C3
:10D1000040F002008DF80700FFF7BEFE034610BB9B
:10D110002379D3B1A3789BB902210DF107008DF8D3
:10D120000730FFF72FFD0346A8B99DF8070002213D
:10D1300040F002008DF80700FFF7A6FE034650B945
:10D140000020FFF75BFD034605E00120FFF786FFA7
:10D1500003460028DED0184602B010BDCC030020E4
:10D1600008B52DED088B9FED1F9AB0EE40AA31EE69
:10D17000400AF0EE60AA20EE090AB0EE618AB6EE2F
:10D1800000BA20EE0B0A38EE6A8AF0EE419A1FF0E0
:10D1900007FC28EE098AF0EE408A28EE0B0A1FF001
:10D1A000FFFBB0EE408A2AEE090A1FF0ADFB28EE25
:10D1B000088AB0EE40AA29EE890A1FF0A5FB28EEE6
:10D1C0000A8A28EE000AA8EEA80A1FF07FFB1FF0CB
:10D1D0004FFBBDEC088B30EE000ADFED037A20EE4A
:10D1E000270A08BD35FA8E3C20A4C24A10B50F4C60
:10D1F00000220421204615F0D3FE4FF47A7018F077
:10D2000077FD01220421204615F0CAFE4FF47A7002
:10D2100018F06EFD064800F0DFFCBDE81040054A3E
:10D2200005490648352311F053BA00BF00100048E5
:10D2300024380020B17A030886DD0208D9E3020809
:10D2400013B50E4CFFF7D2FF0D494FF48062204614
:10D2500000F05CFD4FF480630A49009304220A4BFE
:10D26000204600F082FD13F017FE084A084B1168B3
:10D27000526859609A6002B010BD00BF2438002087
:10D280000038014000000240EC0300208C3C0020EC
:10D290009437002070B55C4C5C4D88B0204600F09F
:10D2A00049FA15F003FA2B68C01A42F2107398423B
:10D2B0001ED915F0FBF994F82A302860079394F8EA
:10D2C0002D30069394F82C30059394F82B3004936A
:10D2D000206CFEF749F9CDE90201E06BFEF744F955
:10D2E0004B4ACDE900017E234A494B4811F0F0F941
:10D2F00045484A4E4A4D00F05BFC002847D015F0E7
:10D30000D5F9306015F0D2F994F82830286003F090
:10D310001803182B38D194ED0F7ADFED427AF0EE36
:10D32000C76AF4EEE76AF1EE10FA2DD8D4ED107A60
:10D33000DFED3D6AB0EEE76AB4EEE66AF1EE10FAB0
:10D3400022D8B5EE407AF1EE10FA1DD0F5EE407A13
:10D35000F1EE10FA18D0354B83ED017AC3ED027A65
:10D3600015F0A4F9324B3349186094F8283013F0C3
:10D37000010218BF94F82A200A702F4A616C1160CC
:10D380002E4AC3F3401313701F4800F014FC15F02D
:10D390008DF93368C01A41F28833984208D915F0E4
:10D3A00085F91B4A306026492648B52311F090F9CB
:10D3B00015F07CF92B68C01A234B984221D915F03F
:10D3C00075F9286015F072F96368C01A42F20F739C
:10D3D00098420BD80E4A1A491C48BD2311F078F91F
:10D3E000094808B0BDE8704000F0F6BB084A14498F
:10D3F0001748C22311F06CF908B0BDE87040FFF780
:10D40000F5BE08B070BD00BF24380020E003002046
:10D41000A87A030886DD0208F6E30208E803002084
:10D42000E40300200000B44200003443943700209D
:10D43000DC030020D8030020D4030020D303002005
:10D4400059DD020822E40208905F01003EE4020870
:10D450005CE4020810B560B10378ABB12D2B01D0AC
:10D460002B2B00D10130094C431E002013F8011F63
:10D4700001B910BD625C12F0040203D12E29F5D06F
:10D480001046F6E70120F1E71846F2E7B9BD0308B8
:10D4900070B50D460446002841D0FDF7A3FE0528CF
:10D4A0003DD922781F4EB35C13F0040036D061786A
:10D4B000735C13F0040031D0A378F35C13F0040024
:10D4C0002CD0E378F35C13F0040027D02379F35CCD
:10D4D00013F0040022D06379F35C13F004001DD034
:10D4E000303A02EB8202303901EB4201E970A37855
:10D4F000E278303B303A03EB830302EB43032B71BA
:10D5000023796279303B03EB8303303A02EB430328
:10D510006B712B7843F002032B70012070BD00204B
:10D52000FCE700BFB9BD030803463038C2B2092A80
:10D530000FD9A3F14102052A02D8A3F137007047A1
:10D54000A3F16102052A02D8A3F1570070474FF0FA
:10D55000FF30704770B50C46064688B181B1FDF7C3
:10D5600041FE05462046FDF73DFE854208D3281AB8
:10D5700021463044FDF72CFEB0FA80F0400970BD22
:10D580000020FCE710B50246441C0020214614F898
:10D59000013B2A2B01D00D2B00D110BD23B1891ADC
:10D5A000802901DC5840F1E70020F6E72DE9F0473B
:10D5B0001F460378242B04460E46904642D12A216A
:10D5C0001CF074F8054600283CD04078A0F13003E8
:10D5D000092B04D920F02003413B052B32D8A97830
:10D5E000A1F13003092B04D921F02003413B052B85
:10D5F00028D8FFF799FF82460846FFF795FF814636
:10D600002046FFF7BFFF49EA0A195FFA89F9814509
:10D610004FF000000CD1013428700123346014F85D
:10D62000012B0AB1984505D8181E3B6018BF012090
:10D63000BDE8F0872C2A02BF04F8010C46F823400D
:10D640000133ECE70020F3E7FDEEC07A642317EE28
:10D65000902A92FBF3F307EE903A9FED067ADFED06
:10D66000066AF8EEE77AA7EEC70A80EE267A37EE6A
:10D67000270A70470000C842000070422DE9F041BF
:10D6800080460D4617461E46FFF7E4FE044618B9CD
:10D6900000242046BDE8F081002DF9D02B78002B26
:10D6A000F6D040461AF00EFF51EC100BFEF76EFA62
:10D6B00000EE100AFFF7C8FF2978BFB1532912D135
:10D6C000B1EE400ADFED127AB4EEE70AF1EE10FA9D
:10D6D000DED4DFED107AB4EEE70AF1EE10FAD7DC13
:10D6E00086ED000AD5E74E29D2D1EBE757290BD1B9
:10D6F000B1EE400ADFED087AB4EEE70AF1EE10FA77
:10D70000C6D4DFED067AE6E74529C1D1F2E700BFCE
:10D710000000B4C20000B442000034C3000034432F
:10D7200030B1036823B1DA69D2061CBF1F221A6226
:10D73000704700002DE9F04F0446BFB094F8243044
:10D740005BB9012384F8243094F826304BB90023C8
:10D7500084F824303FB0BDE8F08F012018F0C8FAFB
:10D76000ECE76369002BF2D0E269002AEFD0278C46
:10D77000002FECD0A2699A498A5C13445B68A7EB3E
:10D7800003081FFA88F8474598BF4FF00008638CDC
:10D790004345DCD0002FDAD0E269D65CA36873B1D0
:10D7A000638A63B114F082FF242E606012D1A368F3
:10D7B000012222821E70238AA2680021D154638C28
:10D7C000228C0133013FB3FBF2F102FB113363847E
:10D7D000BFB2DCE70D2E258A02D00A2E40F0D78199
:10D7E000A168002D00F0ED800B78242B40F0E9803B
:10D7F000E068002800F0E580638AAB429CBF03F13B
:10D80000FF339DB22A461CF00AFEE36800265E55EF
:10D81000D4F80C90B9F1000F00F0D38099F80030E3
:10D82000242B40F0CE806F4948461BF04CFF431E2E
:10D830007E2B054600F2C580024649461EA81CF014
:10D84000EEFD05F1F8030DEB03051EA805F8806C4D
:10D85000654D29681BF06DFF8146002800F0C880E7
:10D8600003AB142206A91EA80396FFF79FFE00280B
:10D8700000F0A78029680698FFF76CFE8246002812
:10D8800000F09F80DDF80C90B9F1010F40F2978015
:10D89000079804F12801FFF7FBFDB9F1060F0546D3
:10D8A00040F294800C980378002B00F085801AF0E9
:10D8B0000CFE84F83100DDF820B0099904AB012298
:10D8C0005846FFF7DBFE30B30A9E0B9905AB0022EA
:10D8D0003046FFF7D3FEF0B1019058461AF0F2FD42
:10D8E00051EC100BFEF752F9606330461AF0EAFD76
:10D8F00051EC100BFEF74AF9049BE363059B23648C
:10D9000094F82830019AA06323F0180343F0180319
:10D9100084F828301546B9F1070F5BD90D98C0B1CE
:10D920000378B3B12D2B01D02B2B56D1431C1B7880
:10D930002E4AD25C510701D42E2B0AD11AF0C5FD14
:10D9400094F8283084F82A0043F0010384F8283042
:10D950005546B9F1080F3DD0DDF838A05046FFF725
:10D9600079FD064670B150461AF0ACFD51EC100B33
:10D97000FEF70CF994F82830606443F0200384F833
:10D9800028303546B9F1090F24D00F9E3046FFF7F5
:10D9900061FDF8B130461AF095FD51EC100BFEF721
:10D9A000F5F894F82830A06443F0400384F8283058
:10D9B000012384F8253004E084F831307BE784F8D3
:10D9C00031600023A26823821370F8E684F8316086
:10D9D0003FF471AF002DEBD1F3E70346A7E700BF9B
:10D9E000C27A030879E4020804000020B9BD0308E4
:10D9F00069681EA81BF09DFE0028E2D0182203AB28
:10DA00000DEB02011EA8CDF80C90FFF7CFFD00280A
:10DA1000D7D069680698FFF79DFD0028D1D0039EF6
:10DA2000012ECED9079804F12801FFF731FD062E0B
:10DA30000546CFD9DDF824B00A9904AB0122584637
:10DA4000FFF71CFE30B3DDF82CA00C9905AB0022CB
:10DA50005046FFF713FE8146E0B158461AF032FDFA
:10DA600051EC100BFEF792F8606350461AF02AFD55
:10DA700051EC100BFEF78AF8049BE363059B2364CB
:10DA800094F82830A06323F0180343F0180384F8B7
:10DA900028304D46072E9DD0DDF834A05046FFF7C4
:10DAA000D9FC814670B150461AF00CFD51EC100BB8
:10DAB000FEF76CF894F82830E06443F0800384F8B3
:10DAC00028304D46082E85D0DDF838A05046FFF7A7
:10DAD000C1FC814670B150461AF0F4FC51EC100BB9
:10DAE000FEF754F894F82930206543F0010384F8D8
:10DAF00029304D46092E3FF46DAF0F9E002E3FF4A6
:10DB000069AF3046FDF76EFB05287FF663AF3378CB
:10DB10002649CA5C52077FF55DAF7278885C400782
:10DB20007FF558AFB078085C40077FF553AFF078C9
:10DB3000085C40077FF54EAF3079085C40077FF501
:10DB400049AF7079095C49077FF544AF303B03EB7F
:10DB50008303303A02EB430284F83020B378F27842
:10DB6000303B303A03EB830302EB430384F82F305E
:10DB700033797279303B03EB8303303A02EB430392
:10DB800084F82E3094F8283043F004030EE7002D7B
:10DB90003FF415AE638AA268013B9D4203D26B1C21
:10DBA0002382565507E6002323820DE7B9BD0308FB
:10DBB00090F82500704710B5044694F8243033B926
:10DBC000238584F8543084F86030A38410BD01208C
:10DBD00018F08EF8F1E70000F8B50446002800F0D0
:10DBE0009280036853B353E8002F22F0200243E8E9
:10DBF00000210029F7D103F1080252E8002F22F09A
:10DC0000400203F1080040E800210029F3D194F814
:10DC1000262042B1626932B1A1693B48405C11588B
:10DC200021F0010111504022D969890604D5013A39
:10DC300012F0FF02998CF7D11F221A62002584F896
:10DC40002450258214F032FDA368606013B1628A0B
:10DC500002B11D70E3681BB1628A0AB100221A701A
:10DC6000E06920B1228C12B100211BF0FAFC0023E4
:10DC700063842046FFF79FFF94F82630002B42D0A4
:10DC80002268002A3FD06369002B3CD0D4F81CE006
:10DC9000BEF1000F37D0B4F820C0BCF1000F32D075
:10DCA00002F1080656E8001F21F0400146E8001086
:10DCB0000028F5D1A169144D695C585820F0010085
:10DCC00058504FF48030586058585F186FF30E105A
:10DCD000243240F0A0005850BA60C7F80CE07A68CF
:10DCE0006FF30F0242EA0C027A6056E8002F42F00E
:10DCF000400246E800210029F7D1A269A95C5A58E0
:10DD000042F001025A50F8BDC27A0308F8B586689D
:10DD100004460F461546BEB96C22314604301BF04E
:10DD2000A0FC276028461AF0D3FAA06028461AF013
:10DD3000CFFA0346E060A06810B13BB91AF060FB6F
:10DD4000E06808B11AF05CFB0020F8BD2A463146B5
:10DD50001BF087FC2A463146E0681BF082FC204617
:10DD60006582FFF739FF0120EFE770B5BDF810407D
:10DD700090B106687EB181B18BB154B1C3610484A6
:10DD800000230124C0E90512438480F82640FFF7F0
:10DD900023FF204600E0304670BD0846FCE71846E9
:10DDA000FAE74FF6FF73A0F8DE344FF0FF33C0F808
:10DDB000E034C0F8E434C0F8E834C0F8EC34A0F83B
:10DDC000F0340020704730B5044689B010460D4647
:10DDD00000293CD0002A3AD0694602F011FA04F139
:10DDE000A80104AA684602F056F8079905981E2271
:10DDF00002F008FC069904461E22049802F002FC78
:10DE0000241A44F35134DDE906012C601E2202F08D
:10DE1000F9FB1E220446DDE9040102F0F3FB05993B
:10DE2000044444F351346C601E22084602F0EAFBBD
:10DE3000069904461E22084602F0E4FBC4F1005491
:10DE4000241A44F35134AC60002009B030BD4FF0C7
:10DE5000FF30FAE710B578B171B16AB113680C6898
:10DE60001B1B036053684C681B1B436093688A68E4
:10DE70009B1A8360002010BD4FF0FF30FBE70000CD
:10DE800010B504468EB00846002C42D0002940D080
:10DE900001A902F0B5F905A901A802F0C5FB08988F
:10DEA00005994042C913C01302F050FC40001022F3
:10DEB0001949206002F0A6FB20600C980D994042A1
:10DEC000C913C01302F042FC4000134960601022E5
:10DED00002F098FB0B9960601E22084602F092FB4C
:10DEE000C0F1804002F024F9C1130B98C01302F076
:10DEF0002DFC40000849A060102202F083FB23683B
:10DF0000A060002BBCBF03F1B473236000200EB0EF
:10DF100010BD4FF0FF30FAE7B84B39000F2938B584
:10DF20000546144624D8022901D8204638BD0339B5
:10DF30000C29FAD801A353F821F000BF01E0000832
:10DF40002BDF00082BDF00082BDF00082BDF000889
:10DF50002BDF0008B1DF0008FBDF00082BE0000822
:10DF60002BDF00082BDF00082BDF0008F5DF00089F
:10DF70001939CBB20A2BD8D80A29D6D801A353F81D
:10DF800021F000BF7DE000082BDF00082BDF000838
:10DF90002BDF000831E0000877E00008A9E0000866
:10DFA0002BDF00082BDF00082BDF000871E00008E2
:10DFB000A5F8DE240921284600F0EBFB20B1B5F8D6
:10DFC000DE349C4228BF1C460F21284600F0E1FBAE
:10DFD00020B1B5F8E0349C4228BF1C460A212846EF
:10DFE00000F0D7FB0028A0D0B5F8E2349C4228BF4F
:10DFF0001C469AE7A5F8E024DCE7A5F8E224D9E777
:10E00000A5F8EC240321284600F0C3FB20B1B5F8A5
:10E01000EC349C4228BF1C460B21284600F0B9FB7B
:10E02000002882D0B5F8EA34E0E7A5F8EA24E9E769
:10E03000A5F8E4441D21284600F0ABFB20B1B5F85B
:10E04000E4349C4228BF1C462321284600F0A1FB53
:10E0500020B1B5F8E6349C4228BF1C461E21284654
:10E0600000F097FB00283FF460AFB5F8E834BDE757
:10E07000A5F8E644DEE7A5F8E844DBE7A5F8F044B8
:10E080001921284600F085FB20B1B5F8F0349C42F8
:10E0900028BF1C461F21284600F07BFB00283FF4C8
:10E0A00044AFB5F8EE34A1E7A5F8EE44E8E700BFC9
:10E0B0000F2970B50446154622D8022900D870BD34
:10E0C00003390C29FBD801A353F821F0B9E100086A
:10E0D000BFE00008BFE00008BFE00008BFE00008A4
:10E0E000BFE0000841E1000841E10008B9E1000893
:10E0F000BFE00008BFE00008BFE0000841E1000801
:10E100001939CBB20A2BDAD80A29D8D801A353F887
:10E1100021F000BFDDE10008BFE00008BFE000081B
:10E12000BFE000087FE100087FE10008DDE10008B2
:10E13000BFE00008BFE00008BFE000087FE1000882
:10E14000092100F026FBB8B1B4F8DE640F212046A7
:10E1500000F01FFB20B1B4F8E0349E4228BF1E46F9
:10E160000A21204600F015FB20B1B4F8E2349E42AB
:10E1700028BF1E462E80A2E74FF6FF76E6E71D2158
:10E18000204600F006FBA0B1B4F8E4642321204649
:10E1900000F0FFFA20B1B4F8E6349E4228BF1E46D4
:10E1A0001E21204600F0F5FA0028E3D0B4F8E83448
:10E1B000DDE74FF6FF76E9E7032100F0EAFA50B118
:10E1C000B4F8EC640B21204600F0E3FA0028D1D02B
:10E1D000B4F8EA34CBE74FF6FF76F3E7192120468F
:10E1E00000F0D7FA50B1B4F8F0641F21204600F0D7
:10E1F000D0FA0028BED0B4F8EE34B8E74FF6FF7678
:10E20000F3E700BF0139032928D8DFE801F0021045
:10E210001D1B2323C0E92123FF22012380F88C301A
:10E2200080F87D2280F8812280F88532704724238F
:10E23000C0E92123012380F88C3080F87D3280F8FA
:10E240008132F1E72023F3E72523C0E921230123CD
:10E2500080F88C3080F87D32FF23F0E70023C0E99E
:10E26000213380F88C30704738B590F881300546FE
:10E2700083B1002100F0A0F901210446284600F0F6
:10E280009BF9204305D1284600F0CFF9002385F8FB
:10E29000813038BD1846FCE730B52422044685B0ED
:10E2A000002150301BF0DDF90125002303AAA4F85A
:10E2B0004D3084F84F30E367A4F88050CDE9005228
:10E2C000194694F88420204600F0B6F908BB9DF862
:10E2D0000C30482B1FD1114B63678022104BA36772
:10E2E00084F84D20312348F28002A4F84E2084F8AF
:10E2F0008230009094F884202946204600F0C0F92E
:10E3000038B9022384F8815084F88C302046FFF716
:10E31000ABFF05B030BD4FF0FF30FAE7CA7A030813
:10E32000D07A030837B590F88110044611BB90F8F5
:10E330008030002B0CBF09230A2343F050030093C5
:10E3400090F884200CBF1023032300F0DAF878B98A
:10E350000125009594F8823094F8842029462046BF
:10E3600000F0F9F820B9204600F058F984F88150FF
:10E3700003B030BD0020FBE72DE9F04F99B00B78DA
:10E380008DF800304B788DF803308B788DF806309F
:10E39000CB788DF801300B798DF804304B798DF8FE
:10E3A00007308B798DF80230CB798DF80530DFF8A6
:10E3B0000C910B7A8DF808300446154600F14C0696
:10E3C00003AF00F14F0816F8010F80304946800571
:10E3D00001F038FE464547F8040BF4D10FAA00219E
:10E3E0000326B1FBF6F303EB4303CB1A18A800EBAB
:10E3F0008303685653F8543C01314343092942F8DA
:10E40000043BEED12422002106A84FF000081BF0A7
:10E4100028F904F521774246A7F50E7600250FABC3
:10E4200046F8042F03EB850BBA464FF000095BF862
:10E4300029105AF8040F01F005FE336809F10309A9
:10E440000344B9F1090F33604FF00002EFD10135F9
:10E45000032DE4D108F10308B8F1090F07F10C0707
:10E46000DAD106AD04F12408464628464FF0000CE8
:10E4700010E0196D1EF9019B0C33B34201FB0977C3
:10E48000F7D10CF1010CBCF1030F40F8047C03F14F
:10E49000040606D050F8047B0DEB020EA6F124030F
:10E4A000E7E70332092A05F10C05DDD106A920466C
:10E4B00002F0E1FA19B0BDE8F08F00BF999999090F
:10E4C0002DE9F041043A4C30002701F10408002303
:10E4D0008E1E84461D4636F9024F5CF804EF240474
:10E4E000B045CEFB0435F6D19B0F033743EA8503D5
:10E4F000092F42F8043F00F10C00E8D10020BDE8EC
:10E50000F081F7B500EBC10662F07F02B18D8DF8A6
:10E5100007201F4601220DF10703054603F0DFFF28
:10E52000F18D8DF807700DF107030446012228468E
:10E5300003F0D5FF9DF82030318E63F07F03044354
:10E540008DF8073001220DF10703284603F0C7FFBD
:10E55000204303B0F0BDF7B500EBC1061F46B18DF7
:10E560008DF807200DF107030122054603F0B7FFE0
:10E57000F18D8DF807700DF107030446012228463E
:10E5800003F0ADFF9DF82030718E8DF80730044305
:10E590000DF107030122284603F0A1FF8123044364
:10E5A0008DF80730318E0DF107030122284603F064
:10E5B00096FF204303B0F0BD00EBC1010022098E9D
:10E5C00003F0D7BF144B10B5C36203F1021303630A
:10E5D00003F10213436303F10213836303F1021394
:10E5E000C36303F10213036403F10213436403F1F1
:10E5F0000213044683640021FFF7DEFF0121204659
:10E60000FFF7DAFF02212046FFF7D6FF204603215D
:10E61000BDE81040FFF7D0BF83018401027F42F0C4
:10E6200020020277032103F0A4BF027F02F0DF0281
:10E630000277032103F09DBF73B5069CE4B2DBB201
:10E6400000940E460546FFF75CFF04462846FFF798
:10E65000E5FF04434EF6602004F04EFA2846FFF72B
:10E66000E4FFDDE9062304433B21284603F0BBFF1A
:10E67000314604432846FFF79FFF204302B070BD98
:10E6800073B59DF818400094DBB20E460546FFF7BF
:10E6900062FF04462846FFF7C1FF04434EF66020A0
:10E6A00004F02AFA2846FFF7C0FF31460443284603
:10E6B000FFF782FF204302B070BD10B400230C4668
:10E6C000A40803F101034FEA6101F8D1042BB8BF9C
:10E6D00004230121994011605DF8044BD9B201F087
:10E6E0009CB8003B18BF012370B5DB00D0F8604137
:10E6F00013800D4664B1E30702D464080235F9E7DC
:10E70000B5F900305E1CF8D0168833431380F4E767
:10E71000D0F86431403103B970BDDD0706D5B1F9D9
:10E720000000441C1EBF1488204310805B08023187
:10E73000F1E70000022808D00B38C3B21C2B06D822
:10E740000448D84000F001007047012070470020C5
:10E75000704700BF0922901030B40C4619464FF69E
:10E76000FF739C4212D040F265435C4300EB4105CD
:10E770004FF47A735343B4FBF3F412FB04F2013CFD
:10E78000A5F8BC2022B230BC02F0E4B8002030BCB6
:10E7900070474A09583201F01F0150F82200012346
:10E7A0008B4018407047F8B505460C4601EB420710
:10E7B0004FF6FF7621782846FFF7EBFF38B16378F4
:10E7C00005EB4303B3F806319E4228BF1E460234D0
:10E7D000BC42EFD13046F8BDF8B54A2204460021CC
:10E7E000BC301AF03EFF04F5837200231221C820CA
:10E7F000A3F10C05022D03D9A3F11F05012D14D897
:10E8000011800133252B02F10202F1D125460021AE
:10E81000012640F6E20C40F2014748F6086E0F2947
:10E8200022D8012914D8052206E00F2B0CBFA4F82A
:10E8300024111080E5E70E224FF47A7301E00522DF
:10E840001423A5F86821A5F86A3101310435E6E7FB
:10E8500006FA01F313EA0E0FF1D144F20402134257
:10E860000CBF05220E22E7E7A1F118031B2BDAD813
:10E8700006FA03F010EA0C0FE1D13840DBD11B2B74
:10E88000D1D1C8234FF0C812C4F8380284F83C62D2
:10E89000A4F83602A4F85601A4F83E02C4F84002D7
:10E8A000A4F84632C4F84822A4F84C32F8BDA0F8C7
:10E8B000501171B18023A0F85431B0F85C3143F0AD
:10E8C0008003A0F85C31B0F842320133A0F8423244
:10E8D0007047D0F8643113F40073F9D1A0F85431C3
:10E8E000B0F85C3123F08003A0F85C31B0F842321C
:10E8F000013BEBE771B18023A0F85431B0F85C31F3
:10E9000043F08003A0F85C31B0F842320133A0F844
:10E9100042327047B0F85031002BFAD1A0F8543190
:10E92000B0F85C3123F08003A0F85C31B0F84232DB
:10E93000013BECE790F83A027047B0F8500170479D
:10E940000A3989B20C2996BF024B034953F82110AA
:10E9500002F054B8D87A03082EBAE8001FB505298A
:10E960004FF00003CDE90133039304D81B4B01930F
:10E970001B4B02930EE00A2903D81A4B01931A4B42
:10E98000F7E70B290CD1194B4FF03332CDE90123B6
:10E990000123039301A902F042F805B05DF804FBDE
:10E9A000142903D8124B0193124BE2E7162904D81D
:10E9B0004FF0333301930D4BDBE74B2906D80E4B59
:10E9C0000193A3F1AA3303F14043D2E7E129E1D84F
:10E9D0000A4B0193A3F1CC33CBE700BF7DD2273D97
:10E9E000832DD8029224493A6EDBB605CDCCCC0CEF
:10E9F00025499234DBB66D0B55555515666666068E
:10EA00002DE9F04F5D4B1D46A3B0044655F8040BAD
:10EA10000390696858680BAA03C22989D3F80E00CD
:10EA200011800490D3F81610D3F812000EAA03C276
:10EA3000598B1180D869196A11AA03C2998CD3F82D
:10EA4000260011800590D3F82E10D3F82A0014AABE
:10EA500003C2D3F832001060D3F83600D3F83A106E
:10EA600009AA03C2D3F83E0006901A46D3F8420022
:10EA7000079017AD52F8460B08906E33A946106800
:10EA800051682E4603C608329A423546F7D113889C
:10EA90003380152249462046FFF785FED4E95868A1
:10EAA000B707054608F4806362D5B4F846223BB147
:10EAB000B4F84832934228BF1346A4F8063101E067
:10EAC000A4F80621B4F854312BB1B4F82031AB428C
:10EAD00028BF2B469DB2B4F858312BB1B4F822317F
:10EAE000AB4228BF2B469DB2B4F856312BB1B4F8D7
:10EAF0002431AB4228BF2B469DB208F0800706F4B4
:10EB000080131F4303D0052D28BF0525ADB2002E6D
:10EB100001DB300503D5052D28BF0525ADB2184B07
:10EB20004A4603F1180E186859689446ACE8030089
:10EB3000083373456246F6D118689B88CCF800000C
:10EB40004946ACF804300F222046FFF72CFEF103B3
:10EB5000814608F4006340F11F81B4F84A228BB16A
:10EB6000B4F84C32934228BF1346A4F808310BE0A6
:10EB7000002BA7D0B4F848329FE700BFB0DA0208F4
:10EB800020DB0208A4F80821002E01DB320506D59F
:10EB9000B9F1050F28BF4FF005091FFA89F98B4B12
:10EBA00017AA03F110089646186859689446ACE80D
:10EBB0000300083343456246F6D11868CCF80000DC
:10EBC0000A2271462046FFF7EEFD82462FB10F283C
:10EBD00028BF4FF00F0A1FFA8AFA002E01DB330517
:10EBE00006D5BAF11C0F28BF4FF01C0A1FFA8AFA8B
:10EBF000022203A92046FFF7D6FDA945C84628BF33
:10EC0000A8461FFA88F8D04528BFD0461FFA88F8D2
:10EC1000804528BF80461FFA88F8B8F1010F834667
:10EC200040F0C080637E012B04D184F844822046EA
:10EC300000F0B0FDB4F842624FF6FF739D420CBF86
:10EC40001D46454699450CBF9946C1469A450CBF9D
:10EC50009A46C2469B450CBF9B46C346002E00F019
:10EC6000B080102D00F2AA80594B33F915204FF4D3
:10EC70007A7595FBF2F5ADB2102D00F2A08033F954
:10EC80001510204602F008F8C82D2E4628BFC826C9
:10EC900040F26543B6B25E434FF47A73B6FBF3F6C7
:10ECA000B6B20D23324629462046FFF755FD0746EA
:10ECB000B4F85631002B00F08D80102D00F28380C7
:10ECC000434B33F915204FF47A7595FBF2F5ADB24D
:10ECD000102D79D833F91510204602F005F8C82D0B
:10ECE0002A4628BFC82240F2654392B25A432946B9
:10ECF0004FF47A732046B2FBF3F20F2392B2FFF780
:10ED00002BFD0743C82D2E4628BFC82640F2654379
:10ED1000B6B25E434FF47A73B6FBF3F6B4F836320C
:10ED2000B6B2B34213D031462046FFF709FE314652
:10ED300001902046FFF712FE019B711E034309B2AA
:10ED400020461F4300F071FDA4F8366207430522F8
:10ED50000BA92046FFF727FD002301463246204637
:10ED6000FFF7FAFC0222074304A92046FFF71BFD28
:10ED70000723014632462046FFF7EEFC05220743F3
:10ED80000EA92046FFF70FFD0C2301463246204610
:10ED9000FFF7E2FC074321E0002B3FF4F5AEB4F8A7
:10EDA0004C32E2E694F84432002B3FF443AF0023A8
:10EDB00084F84432204600F0DFFC3BE7112538217F
:10EDC0005FE7374674E71125382185E73EDB020807
:10EDD0000C7B03084FF6FF739D4293D14FF6FF73F0
:10EDE000994548D04946C82928BFC82140F2654303
:10EDF00089B259434FF47A73B1FBF3F1B4F8383266
:10EE00008EB2B34207D00139C9B2204600F0F5FCFA
:10EE1000A4F838620743052211A92046FFF7C3FC76
:10EE20000123014632462046FFF796FC02220743A3
:10EE300005A92046FFF7B7FC0A23014632462046C3
:10EE4000FFF78AFC0622074314A92046FFF7ABFC14
:10EE50000523014632462046FFF77EFC0422074385
:10EE600009A92046FFF79FFC0623014632462046AB
:10EE7000FFF772FC07430AEA0B039BB24FF6FF72DF
:10EE800093424ED009EA05091FFA89F900239145FA
:10EE900017930ED1B8F1C80F40F2654328BF4FF069
:10EEA000C80803FB08F84FF47A73B8FBF3F81FFAAD
:10EEB00088F6314617AA2046FFF7FFFB4FF6FF738F
:10EEC000994508BFBDF85C609A4547EA000718D02D
:10EED000022206A92046FFF766FC032301463246BC
:10EEE0002046FFF739FC0222054607A92046FFF716
:10EEF0005AFC0B23014632462046FFF72DFC054302
:10EF00002F434FF6FF739B450BD0022208A92046E2
:10EF1000FFF749FC0923014632462046FFF71CFC57
:10EF20000743384623B0BDE8F08F00BF70B50446F4
:10EF300008460D461646FFF7FDFB00283AD1A5F11D
:10EF40001103DBB21E2B06D87D4A22FA03F313F01D
:10EF5000010F18BF1226204600F034FB05F15A03BA
:10EF600034F8232004EB8503B242B3F86A3138BF8A
:10EF7000324692B29A4228BF1A466B1E2E2B2ED8CA
:10EF8000DFE803F0209A8C809DD42DD183838C2DD3
:10EF90002D978360A35555582D9DA0CEC0B4D1D7D1
:10EFA000B7B7C02D2DCBB7B1A3A3A62DAB45702D00
:10EFB000AEDA5D00204600F0FCFB0028BFD14FF028
:10EFC000FF3520E0D4F864315D051ED5B4F8483231
:10EFD000934228BF1346A4F80631A4F846222046DF
:10EFE000FFF70EFD0546204600F015FC06462046BC
:10EFF00000F04AFD31460246204600F0F9FC054388
:10F00000204600F038FB284670BD1346E3E7D4F8ED
:10F010006031980709D5B4F84632934228BF1346A9
:10F02000A4F80631A4F84822D9E71346F8E7A4F873
:10F030001E21D4E7A4F81421A4F82A21CFE7A4F8CC
:10F040002021CCE7D4F86431190509D5B4F84C3245
:10F05000934228BF1346A4F80831A4F84A22BEE719
:10F060001346F8E7D4F86031DB0309D5B4F84A3227
:10F07000934228BF1346A4F80831A4F84C22AEE707
:10F080001346F8E7A4F81A21A9E729462046FEF717
:10F0900045FFA4F81001A4F82601A0E72946204660
:10F0A000FEF73CFFA4F81201A4F82801A4F82C01F3
:10F0B00095E7A4F80C2192E7A4F81C218FE7A4F8A7
:10F0C0000E218CE7A4F82E2189E7A4F8442186E7D5
:10F0D000A4F83A21A4F84C2181E7A4F846217EE760
:10F0E000A4F824217BE7A4F8302178E7A4F8402194
:10F0F00075E729462046FEF711FFA4F83601A4F86B
:10F1000048016CE729462046FEF708FFA4F83801BD
:10F11000A4F84A01A4F84E0161E7A4F832215EE7A1
:10F12000A4F842215BE7A4F8342158E7A4F8182199
:10F1300055E7A4F83E2152E7A4F822214FE700BF8B
:10F14000070030712DE9F047044698B008460D4697
:10F150001746FFF7EFFA50BB204600F033FA94F859
:10F160003C3263BB9846002326490193582202A8EB
:10F170001BF055F904F5AD76002F00F011822946F9
:10F180002046FFF706FB30B9284602F09DFA2044DE
:10F19000012380F8AC32112D19D14FF40063A4F88B
:10F1A0003E32B4F842320133A4F84232F2E1204652
:10F1B00000F0FFFA0028CFD14FF0FF3672E10023B4
:10F1C00084F83C32204600F05EFA8046CBE7122DF0
:10F1D0000DD1B4F8423237B101339BB24FF4005233
:10F1E000A4F84022E0E7013B9BB23A46F8E7132D32
:10F1F00040F0C781B4F8423217B101339BB2D3E774
:10F20000013BFBE752DB02083B1E18BF01239B02B8
:10F21000A4F8583194F83B32002F00F05F81B4F825
:10F220005A21013342F00802A4F85A2184F83B32F3
:10F230002B2D1BD818AB03EB450333F9580C411C9D
:10F2400014D06A0904EB820205F01F0C0123D2F8E6
:10F25000601103FA0CF3002F00F04A810B43C2F84F
:10F260006031B4F85A311843A4F85A01B4F85A116D
:10F27000204601F0ECFAB4F85631B4F85A11814640
:10F280001BB141F4004141F00801204601F01EFB92
:10F29000B4F95A11B4F85C31B4F85A210029A8BF66
:10F2A00023F4804344F24001B4BF43F480439BB253
:10F2B0000A4208BF23F4005342F220510CBF9BB214
:10F2C00043F400530A42B4F8582108BF23F4805392
:10F2D00049EA000914BF43F480539BB2002A00F0AE
:10F2E000138143F48063B4F85661A4F85C3136B1FD
:10F2F0004FF08041204601F092FD4CF20406B4F834
:10F300005C11204601F0B0FAD4F86021A94B1340FB
:10F3100040EA090A002B40F0FB80D4F8643140F643
:10F320001801194214BF4FF001094FF00009A24B18
:10F33000134023B9D4F8643113F4DD6F01D049F0E0
:10F340000209B4F8583113B9B4F856310BB149F089
:10F350000209B4F854310BB149F00209974B13403C
:10F3600023B9D4F8643113F0840F03D049F00809AD
:10F3700046F0800649F3000303F480731E43B4F89B
:10F380004022B4F83E3219F0020F18BF46F400765E
:10F3900043EA020318BFB6B21E43B4F85A31B6B2FC
:10F3A0005A0548BF46F0400603F0170306F4006212
:10F3B000134306D04FF08041204646F4404601F00A
:10F3C0002EFDB4F85C31180606D54FF0804120467A
:10F3D00046F4404601F023FDB4F85C315905B4F819
:10F3E0005A3148BF46F01006DA0548BF46F0080615
:10F3F0003146204601F0A1FAA5F10903012B4AEAA2
:10F40000000602D90F2D40F0868004F58872294647
:10F410002046FEF74DFE04F5937229462046FEF77E
:10F4200047FE2046FFF7ECFA0643204600F0F3F9CA
:10F430008246204600F028FB51460246204600F056
:10F44000D7FAB4F85A3106436BB9D4F860319B034C
:10F4500009D4B4F8563133B9012384F83C3220463C
:10F4600000F045F9064349F08001204600F0E8FB32
:10F4700049460643204601F04EFA132D814648EADC
:10F4800006060AD14FB101A9204601F067FBD4F866
:10F49000A420019B9B1AC4F8A030204646EA090626
:10F4A00000F0E9F8304618B0BDE8F087B4F8423211
:10F4B00037B12022A4F856210133A4F84232A9E63C
:10F4C000A4F85671013BF8E739462046FFF7EFF9FB
:10F4D000A0E639462046FFF70DFA9BE6013BDBB27A
:10F4E00084F83B32324602A92046FFF7FAF89FE63D
:10F4F00021EA0301C2F8601194F83B32324602A9B6
:10F500002046FFF7EEF8B1E623F480639BB2EAE60B
:10F510004FF001090BE705F0F703032B0ED104F5BB
:10F52000897229462046FEF7C3FD04F594722946E8
:10F530002046FEF7BDFD04F596726EE71D2D08D13D
:10F5400004F59B7229462046FEF7B2FD04F5A4722D
:10F5500063E7232DF4D01E2DF2D0192D0ED104F522
:10F560009C7229462046FEF7A3FD04F5A5722946A4
:10F570002046FEF79DFD04F5A7724EE71F2DEED045
:10F580004FE72E2D3FF440AE2D2D8FD02F2D9BD049
:10F59000292D9ED0A5F12D03022B3FF649AE39E669
:10F5A000112D7FF414AEB4F84232A4F83E72013B40
:10F5B000FAE500BF188E01E60A8E9EE20C48108321
:10F5C00001F0E2B9002380F8B8307047012970B526
:10F5D000054603D0022924D000243AE0047E04F03A
:10F5E00001048AB1002CF7D1827E02F0BF0282763C
:10F5F000062103F04EF92B7E044643F001032B76DF
:10F60000012002F061FF24E01CB3827E42F0400240
:10F610008276062103F03DF92B7E044623F0010398
:10F62000EDE790F8264014F0010412D09AB190F85A
:10F63000B84074B1037E9B07CED4827E42F0200294
:10F640008276062103F025F92B7E43F0020304465F
:10F650002B76204670BD047E14F00204F9D0827E21
:10F6600002F0DF028276062103F013F92B7E0446B6
:10F6700023F00203C3E7012280F8B8200221FFF73C
:10F68000A5BF007E704737B5044601221146FFF73B
:10F690009DFF94F82730022B054607D1227F42F0C8
:10F6A000100222770321204602F063FF47238DF8E2
:10F6B000073001220DF107030721204602F00FFF5A
:10F6C00094F826309B0745EA000508D5227F42F0D2
:10F6D000C00222770321204602F04BFF054301229E
:10F6E00002212046FFF772FF284303B030BD37B533
:10F6F0007F238DF8073001220DF10703072105460E
:10F7000002F0EDFE0022044601212846FFF75EFFCD
:10F71000204303B030BD13B500230DF106010446AC
:10F72000ADF8043001F08FF8BDF806305BBAADF8E3
:10F730000430022201AB4FF4A871204602F0CFFE44
:10F7400002B010BD70B50B4E337805467BB9102260
:10F7500040F2811102F00DFF042204464FF4C07103
:10F76000284602F006FF01232043337070BD0020BD
:10F77000FCE700BFF107002007B5702301228DF8D8
:10F78000073042760DF10703052102F0A8FE03B011
:10F790005DF804FB07B540228DF807200022427671
:10F7A0000DF107030122052102F099FE03B05DF877
:10F7B00004FB90F8B900704738B54FF480730446E5
:10F7C000A0F8B830FEF7FEFE2046FFF7BBFF20464C
:10F7D000FEF762FD04F27D2204F51D710546204608
:10F7E000FEF7CAFD054318BF0023204618BF84F862
:10F7F000B930FFF740FF284638BD07B541778DF88F
:10F8000007100DF1070301224FF4807102F067FE2B
:10F8100003B05DF804FB407F704701238B400A462C
:10F82000C3834FF4C07102F0A4BE07B5018449BA86
:10F83000ADF8041001AB02224FF4887102F04FFEC4
:10F8400003B05DF804FB00002DE9F0470025012618
:10F85000044688461746A0F8B86080F8BA501222CD
:10F86000294618309A4619F0FCFE47F601733246D5
:10F870000321638384F8278004F11C03204602F0EF
:10F88000B2FE80462046FFF7FEFEDFF8609132466A
:10F8900048EA00084B462946204602F0A4FE7023A1
:10F8A00048EA00082946204689F8003001F0B2FFF6
:10F8B00094F82720931E5A425A41120148EA000840
:10F8C00022770321204602F054FE524648EA0008FF
:10F8D0003946204600F0B3FF58EA000840F0838024
:10F8E00094F8263043F0020384F826302046FFF7D0
:10F8F00012FF0546204600F0C1FF4FF44871054352
:10F90000204600F0F5FF022705434B463246102102
:10F91000204689F8007002F0E2FD4B46054332466E
:10F920001221204689F8006002F0D9FDE423054346
:10F9300089F8003032464B462621204602F0CFFDA2
:10F940004B46054332467521204602F04CFE99F89D
:10F95000003043F00803324689F8003075214B46E9
:10F96000204602F0BCFD40F20113638413212046BF
:10F97000FFF743FF13212046FFF757FF38212046AA
:10F9800001F08AF93821204601F0AEF9424676218D
:10F99000204602F0EEFD1F2205436821204602F0BA
:10F9A000E8FD1E2205436821204602F0E2FD4246A2
:10F9B00005436621204602F0DCFD424605436721EF
:10F9C000204602F0D6FD94F826303343054384F8F0
:10F9D0002630324639462046FFF7F8FD2046FFF72D
:10F9E00086FE45EA00084046BDE8F087F0070020A3
:10F9F000F8B590F8283004460F46002B3AD100F1B4
:10FA000028030122A82102F0EEFD054694F92830D2
:10FA100094F82820184E1949002BBCBF02F07F0231
:10FA2000C2F59E6207F10100B8BF0632A0FB0606D0
:10FA300007FB0111B2BFD31702F2F6420023314493
:10FA4000FCF7F4F800230E4A0E4FFCF7EFF8B0F184
:10FA5000004F71F100033B68064628BF6FF0004677
:10FA6000B34205D03146204600F0B9FF3E60054361
:10FA70002846F8BD0025C9E7F05A676635080F002B
:10FA8000A0860100EC07002090F8240070470329AD
:10FA900073B505460E4652DC0DF10603012240F215
:10FAA000011102F0A0FD9DF8061021F03F0141EA8E
:10FAB000460141F0010104468DF806100DF10603E0
:10FAC000012240F20111284602F009FD0DF1070361
:10FAD000044301224FF48171284602F084FD95F819
:10FAE00022309DF80720102B44EA000402F0F802AF
:10FAF0001BD011D8042B1AD0082B1AD0991E4B42B8
:10FB00004B411A434FF4817128468DF8072002F0CB
:10FB100030FD204302B070BD402B0CD0802B0CD0A8
:10FB2000202B0CBF05230023EBE70423E9E7022386
:10FB3000E7E70323E5E70623E3E70723E1E74FF0E1
:10FB4000FF30E7E770B580F8241004460E46FFF753
:10FB50009EFF617F324605462046FFF749FFFA21A6
:10FB6000B140054309B2204601F014F8284370BDA6
:10FB700090F8250070470000032973B505460E462E
:10FB800043DC0DF1060301224FF48A7102F02BFDD4
:10FB90009DF8062095F823307600F6B202F0C002F8
:10FBA0003243012B94BFD2B242F0390204464FF4E3
:10FBB0008A7128468DF8062002F0DBFC95F8233088
:10FBC000083BDBB2182B98BF114A44EA000498BFE7
:10FBD000D65C40F215110DF107034FF001022846E3
:10FBE00088BF002602F0FFFC9DF8073023F00303D6
:10FBF000044346EA030240F2151128468DF8072017
:10FC000002F0B7FC204302B070BD4FF0FF30FAE7BE
:10FC10002E7B0308F8B580F8251006460F4602240F
:10FC2000FFF7AAFFBC4024B221460546304600F04B
:10FC3000DFFF21460543304601F004F82843F8BDB4
:10FC400070B5C37E01F080047F2B08BF44F001042F
:10FC500005460E46B4B111F0020F14BF002338233D
:10FC6000F10758BF43F00703C37672075EBFC37E38
:10FC700043F04003C376012200F11B03072102F089
:10FC80002EFC04463307284603D5FEF74BFB2043E2
:10FC900070BDFEF7E9FAFAE730B503680C684D6805
:10FCA00083FB04349B0F43EA8403446884FB0545CB
:10FCB000A40F44EA85041B1B8D68846884FB0545FA
:10FCC000A40F44EA85041B1BCD68C46884FB05456A
:10FCD000A40F44EA85041B1B136043680C684D683D
:10FCE00083FB04349B0F43EA8403046884FB0545CB
:10FCF000A40F44EA85042344CD68846884FB054549
:10FD0000A40F44EA850423448D68C46884FB054538
:10FD1000A40F44EA85041B1B536003688C68CD68FC
:10FD200083FB04349B0F43EA8403446884FB05454A
:10FD3000A40F44EA85041B1B0D68846884FB0545F9
:10FD4000A40F44EA850423444D68C46884FB054538
:10FD5000A40F44EA8504234493608B68446883FBC2
:10FD600004349B0F43EA84030468CD6884FB054593
:10FD7000A40F44EA8504234485684C68C068096878
:10FD800084FB054581FB0010A40F44EA8504890F1C
:10FD90001B1B41EA80010B44D36030BD0028F0B545
:10FDA00074DAB0F1404F6CD0404201224BF2721332
:10FDB00098425EDD00254010984205F1FF35FADCDF
:10FDC0004610C6F5404787FB0731DB0BC01743EAF7
:10FDD0004143CC1303FB00F106FB0411A3FB0634E3
:10FDE0002144DB0B43EA4143C3F5404383FB073720
:10FDF000D90B41EA4741FF13A1FB013401FB07FC8A
:10FE000004EB4C04DB0B43EA44435843E41306FB86
:10FE10000404A3FB0606A319C00B40EA4340C0F547
:10FE20004040C41700FB07F301FB0433A0FB0101B2
:10FE30000B44C00BEC0740EA43404FEA65014FEA30
:10FE4000E33309D545F68225A0FB050405FB0343F2
:10FE5000C00B013140EA43400029BABF4942084182
:10FE6000884080FB0003C00B40EA434002B140429F
:10FE7000F0BD45F6B80300259842A1DC40000135ED
:10FE8000FAE74FF0FF30F3E70120F1E7B0F1804FE0
:10FE9000FADA00228AE730B543684C680D6883FBC4
:10FEA00004349B0F43EA8403046884FB0545A40FD4
:10FEB00044EA850423448D68846884FB0545A40FC7
:10FEC00044EA85042344CD68C46884FB0545A40F37
:10FED00044EA85042344136043680C684D6883FB3F
:10FEE00004349B0F43EA8403046884FB0545A40F94
:10FEF00044EA85041B1BCD68846884FB0545A40F78
:10FF000044EA85041B1B8D68C46884FB0545A40F67
:10FF100044EA8504234453604368CC688D6883FBBE
:10FF200004349B0F43EA8403046884FB0545A40F53
:10FF300044EA85041B1B0D68846884FB0545A40FF7
:10FF400044EA850423444D68C46884FB0545A40F36
:10FF500044EA85041B1B93600368CC6883FB04346C
:10FF60009B0F43EA84038C68456884FB0545A40F16
:10FF700044EA85045B428568C0681B1B4C680968BD
:10FF800084FB054581FB0010A40F44EA8504890F1A
:10FF9000234441EA80010B44D36030BD70B590B07A
:10FFA00004460E46086849680023089309AB03C35A
:10FFB000B0681860154608A96A462046FFF76CFE2F
:10FFC0002368049363685B420593A3685B420693CE
:10FFD000E36804A95B4268460CAA0793FFF75CFE3E
:10FFE0000DAB03CB286018686960A86010B070BDC5
:10FFF000A83001F1100351F8042B40F8042B99426A
:020000040801F1
:10000000F9D170471FB51446A83001AAFFF7C6FF03
:10001000DDED017AF8EEE77A67EE807AC4ED007ADA
:10002000DDED027AF8EEE77A67EE807AC4ED017AC8
:10003000DDED037AF8EEE77A27EE800A84ED020A16
:1000400004B010BD80FB0101800F40EA81007047C1
:100050000346006800282AD0B0F5803F3CBF00046A
:1000600018601A6834BF10200020B2F1807F3CBFB6
:1000700012021A601A683CBF083000B2B2F1805F09
:100080003CBF12011A601A683CBF043000B2B2F1E2
:10009000804F3CBF92001A601A683CBF023000B229
:1000A000002ABFBF00F1FF30520800B21A6070474B
:1000B00038B5184A03689342044605DD5B100360B7
:1000C0004FF0FF330B600DE0134DAB421EDCFFF72A
:1000D000BFFF2368114A0860934211DD5B10236063
:1000E0000138086022680E4B0E4913448B420FD82A
:1000F0000D480E4B104498428CBF0220012038BDA1
:10010000AB42EFDC5B0023600130EAE70023D9E774
:100110000320F4E7FC0BB958FD855C2CFB0BB958A8
:10012000666666C6CCCCCC0C0AD7A3C014AE470119
:10013000F0B585B0002801905BDD03A901A8FFF7A9
:10014000B7FF06460198039900F1404383FB002561
:1001500000294FEA9272CCBF01F00104002442EA68
:100160008502012EA1EB0401A0EB62002BDD5A10E9
:1001700002F1204282FB0325920F42EA850283FBB3
:1001800002329B0F43EA82035A1082FB0057AD0FE5
:1001900045EA8705032EA0EB650014D19B1003F1FF
:1001A000204383FB02359B0F43EA850382FB032335
:1001B000920F42EA8302521082FB0025930F43EA1A
:1001C0008503A0EB63002CB10B4B80FB03309B0F2E
:1001D00043EA8000002903DD4910084105B0F0BD65
:1001E0000131FBD1054B80FB03309B0F43EA8000BC
:1001F000F4E70020F2E700BFCD3C412D9A79825A06
:1002000070B5D0E900340E4683FB03319B0F826842
:1002100043EA810384FB0441A40F44EA810482FB86
:100220000221C3F18043920F1B1B42EA8102054663
:10023000981AFFF77DFF30602B6873606B68B360BE
:10024000AB68F360002070BD30B589B00446084645
:1002500069461546FFF7D4FF04F1A801684604AAD1
:10026000FFF719FE049C05999FED217A002CDDE92A
:10027000063021DB07EE901AF8EEE77A67EE877A10
:10028000C5ED007A07EE903AF8EEE77A67EE877AE6
:10029000C5ED017A07EE900AF8EEE77A67EE877A05
:1002A00006EE904AF8EEE66AC5ED027A26EE877A07
:1002B00085ED037A09B030BD4A4207EE902AF8EE88
:1002C000E77A5B4267EE877A6442C5ED007A07EE13
:1002D000903AF8EEE77A434267EE877AC5ED017A05
:1002E00007EE903AF8EEE77A67EE877AD8E700BF34
:1002F0000000803010B590ED006AD0ED046A90EDFA
:10030000087A2DED0C8BF7EE009A76EE298A79EEBD
:10031000C69A38EEA60A78EEE68A79EEA6BA30EEEC
:10032000070AF5EE007A78EEC78A79EEE69A20EEB3
:10033000270A7BEEC7BA68EEA78A79EE879A6BEE3A
:10034000A7BAB5EEC00A69EEA79AF1EE10FAF5EE7B
:10035000C08A48BF9FED6E0A90ED01AAD0ED02AAB7
:1003600090ED03CA90ED05BAD0ED06CA90ED07DA1C
:10037000F1EE10FAF5EEC0BA48BFDFED658AF1EE96
:1003800010FAF5EEC09A48BFDFED61BAF1EE10FA4F
:100390000C4648BFDFED5E9A1CF098FAB0EE408A3A
:1003A00084ED000AB0EE680A1CF090FAB0EE409AB4
:1003B00084ED010AB0EE6B0A1CF088FA84ED020AA3
:1003C000F0EE408AB0EE690A1CF080FAB4EEC98AF9
:1003D000F1EE10FA84ED030A23DBB4EEE88AF1EEC5
:1003E00010FA1EDBB4EEC08AF1EE10FAC0F287807C
:1003F000F1EE007A28EE278A3BEE4DBA7CEEEAAAAF
:10040000CBEE087A3AEE4CAAC4ED017ACAEE887AAD
:10041000C4ED027ACAEE087AC4ED037ABDEC0C8B07
:1004200010BDB4EEC98AF1EE10FA1ED8B4EEE89A07
:10043000F1EE10FA68DBB4EEC09AF1EE10FA14DBBC
:10044000F1EE007A29EE279A3BEE4DBA3AEE0CAA6D
:10045000CBEE097A7AEEACAAC4ED007ACAEE097A3C
:10046000C4ED027ACAEE897AD6E7B4EEE88AF1EEF4
:1004700010FA1ED8B4EEE89AF1EE10FA19D8F4EE9C
:10048000C08AF1EE10FA14DBF1EE007A68EEA78A6A
:100490007CEEEAAA3AEE0CAACAEEA87A3BEE0DBAB6
:1004A000C4ED007ACAEE287AC4ED017ACBEE287A40
:1004B000B2E7B4EEC08AF1EE10FAAFD8B4EEC09A4B
:1004C000F1EE10FAAAD8F4EEC08AF1EE10FAA5D82F
:1004D000F1EE007A20EE270A3AEE4CAA7AEEACAAA8
:1004E000CAEE007A3BEE0DBAC4ED007ACAEE807A0D
:1004F000C4ED017ACBEE007AC4ED027A8EE7B4EE59
:10050000498AF1EE10FA96D0B4EEE88AB4E700BF5B
:100510000000000070B52DED028B96B00DAA0546C7
:100520004B1EB0EE408A0831104613F9014F07EE1A
:10053000904AF8EEE77A8B42E2EC017AF5D109A90C
:10054000FFF7D8FEDFED2B8A9FED2B6A01AB09AADE
:1005500004241E46F7EE005AB6EE007AF2EC016A69
:10056000F5EEC06AF1EE10FAB4BFF0EE467AF0EEA6
:10057000657A77EEC77A46EEA87A013CFDEEE77A17
:10058000E3EC017AEAD1DFED1D7A029B28EE670ADF
:10059000DFED1B7A80EE278A5B420293039B5B426E
:1005A0000393049B5B42049328EE078AB0EE480A4B
:1005B0001CF0AAF920EE280A0A94BDEEC00A8DEDBF
:1005C000090AB0EE480A1CF0EBF920EE280A05AA49
:1005D000BDEEC00A314609A88DED0B0A0C94FFF759
:1005E0005BFB11462846FFF703FD16B0BDEC028BFE
:1005F00070BD00BF0000804E00000000DB0F4940CE
:100600000000344310B580FB0101C2F12004B2F1B7
:10061000200320FA02F001FA04F440EA04005CBF6F
:1006200041FA03F3184310BDD0E9003210B583FB43
:1006300003345B0F43EAC40382FB0224520F42EAF5
:10064000C402134403F140430B60D0E9013283FB41
:1006500002325B0F046843EAC203C26882FB0424CF
:10066000520F42EAC4029B1A4B6083680268C46856
:1006700083FB02325B0F43EAC203426882FB04241D
:10068000520F42EAC40213448B60C368026883FBC2
:1006900002325B0F43EAC203D0E9012482FB042447
:1006A000520F42EAC4021344CB600368826883FBA2
:1006B00003345B0F43EAC40382FB0224520F42EA75
:1006C000C402134403F140430B61D0E9023283FBBF
:1006D00002325B0F43EAC203D0E9004282FB0424EA
:1006E000520F42EAC4029B1A4B614368C268046815
:1006F00083FB02325B0F43EAC203826882FB04245D
:10070000520F42EAC4029B1A8B61D0E9003283FB8C
:1007100002325B0F43EAC203D0E9024282FB0424A7
:10072000520F42EAC4021344CB61C368026883FBE0
:1007300003305B0F43EAC00382FB0220520F42EA00
:10074000C002134403F140430B6210BDF8B581EAC7
:10075000E17580EAE077A5EBE175A7EBE077BD42B4
:100760002B4606460C46B8BF3B46B3F5005F3DDC62
:10077000AF4243DC28460DB1FFF710FB80FB072397
:10078000D20B42EA434282FB0213C90B41EA4341C6
:10079000204B81FB0330DB0B43EA404303F59453CA
:1007A0000F3383FB0130DB0B43EA4043A3F52453B3
:1007B000073B83FB0131DB0B43EA414303F5FF4376
:1007C000643383FB0202C00BAF4240EA4240C4BF25
:1007D000C0F549401030002C17DA002EB5BFA0F547
:1007E000C930C0F5C93020382030F8BD05EBD575CB
:1007F00007EBD7775B106D107F10B6E738460FB167
:10080000FFF7CCFA80FB0523BAE7002EB8BF4042C1
:10081000EBE700BF1AFBFFFF03461A1208460A70F7
:100820004B70704703461A160A701A144A701A124F
:1008300008468A70CB707047006800BA70479023F2
:1008400092B200F0FDBA4FF480530B80704707B5A9
:1008500049BAADF8041001AB0222402101F0B3FF08
:1008600003B05DF804FB0000034B0A121A705970C4
:100870000222422101F0A7BFF207002037B5002372
:100880000193022201AB4021054601F09CFF01AB20
:10089000044602224221284601F095FF01AB0444A0
:1008A00002224C21284601F08EFF01AB04440222B3
:1008B0004E21284601F087FF01AB044402228A2121
:1008C000284601F080FF204403B030BD13B5044634
:1008D0000846002301A900B2ADF80430FFF79CFFE1
:1008E000022203464C21204601F06DFF02B010BDEC
:1008F00013B504460846002301A900B2ADF8043040
:10090000FFF78AFF022203464FF4FF71204601F0F1
:100910005AFF02B010BD13B504460846002301A9D2
:1009200000B2ADF80430FFF777FF022203468A21B8
:10093000204601F048FF02B010BD07B549BAADF836
:10094000041001AB02224E2101F03DFF03B05DF81F
:1009500004FB000037B50B2998BF0A4B4FF0000489
:100960000546ADF80440104698BF5C5C01A9FFF74E
:1009700053FF022203462146284601F024FF03B01C
:1009800030BD00BF477B030873B500230D460193BC
:10099000042201AB40F2E471064601F086FE0446F3
:1009A00001A8FFF749FF01AB286004224FF4FD6165
:1009B000304601F07AFE044401A8FFF73DFF01AB89
:1009C0006860042240F2EC71304601F06EFE04448F
:1009D00001A8FFF731FFA860204602B070BD13B533
:1009E0000446084601A9FFF71DFF042203464FF401
:1009F0009871204601F0E7FE02B010BD13B5002348
:100A00000446084601A90193FFF70CFF04220346A0
:100A10004FF48671204601F0D6FE02B010BD73B5CA
:100A20000E460546002301A930680193FFF7FAFE40
:100A3000042203464FF4B661284601F0C4FE01A922
:100A400004467068FFF7EEFE042203464FF4B861D7
:100A5000284601F0B8FE01A90443B6F90800FFF7E3
:100A6000DBFE0222034640F2E451284601F0ABFED1
:100A7000204302B070BD73B50E460546002301A9A0
:100A800030680193FFF7CEFE042203464FF4B8719D
:100A9000284601F098FE01A904467068FFF7C2FEDF
:100AA000042203464FF4BA71284601F08CFE01A9D6
:100AB0000444B068FFF7B6FE042203464FF4BC714D
:100AC000284601F080FE01A90444F068FFF7AAFE61
:100AD000042203464FF4BE71284601F074FE01A9BA
